:020000041000EA
:1000000000B50C4B00219960042159610A4919601F
:100010000A490B480160002159600121996001BC27
:10002000002800D0004707480749086003C880F34C
:10003000088808470000001800031F00180200038A
:10004000F40000180001001008ED00E000000000BE
:1000500000000000000000000000000000000000A0
:100060000000000000000000000000000000000090
:100070000000000000000000000000000000000080
:100080000000000000000000000000000000000070
:100090000000000000000000000000000000000060
:1000A0000000000000000000000000000000000050
:1000B0000000000000000000000000000000000040
:1000C0000000000000000000000000000000000030
:1000D0000000000000000000000000000000000020
:1000E0000000000000000000000000000000000010
:1000F0000000000000000000000000002CEC210DBA
:1001000000200420F7010010C3010010C5010010F9
:10011000C1010010C1010010C1010010C101001097
:10012000C1010010C1010010C1010010C701001081
:10013000C1010010C1010010C9010010CB01001065
:10014000CD010010CD010010CD010010CD01001037
:10015000CD010010CD010010CD010010CD01001027
:10016000CD010010CD010010CD010010CD01001017
:10017000CD010010CD010010CD010010CD01001007
:10018000CD010010CD010010CD010010CD010010F7
:10019000CD010010CD010010CD010010CD010010E7
:1001A000CD010010CD010010CD010010CD010010D7
:1001B000CD010010CD010010CD010010CD010010C7
:1001C00000BE00BE00BE00BE00BE00BEEFF3058054
:1001D000103800BEF2EB8871C43C0010E43C001003
:1001E0003802001090A31AE71E481F49086006C88D
:1001F00081F3088810471D480068002801D019487D
:10020000F3E70DA40ECC002902D000F012F8F9E7B4
:100210001749184A002000E001C19142FCD116495B
:100220008847164988471649884700BEFDE701C937
:1002300001C29A42FBD37047E43C0010C00000208A
:10024000E80100200C3E0010000004200000042003
:100250000C3E0010001004200010042000000000DC
:10026000704700000000000008ED00E0000000D032
:10027000E8010020D405002049340010D502001008
:1002800041340010F8B5C04606480749091A8B10DA
:10029000C90FC91810B5491003D0044B002B00D06A
:1002A000984710BDE8010020E80100200000000090
:1002B000054B10B5002B03D00449054800E000BFF2
:1002C000FFF7E2FF10BDC04600000000A0040020C0
:1002D00060390010F0B5D6464F4646460320C0B5FB
:1002E000D02400F005F90823102624060022A3627A
:1002F0000121032000F0D4F8042000F0F9F8666230
:10030000052000F0F5F820230421636202206661D5
:10031000A36100F0ABF8474A474B484F53623B6834
:10032000474D1B041B0C2B60464B966199461B687E
:10033000454A0F3E33401360904603F085FA1F2173
:100340001C2000F093F8002200211C2000F0A8F8E7
:1003500000211C2000F0B8F880233C4C9B0122684F
:100360005340E022D2011340394A13604B461B68C8
:100370009E4343461E603A68364B374F5340374AD8
:100380001B049046364A1B0C924604222B60914671
:100390000023344D344E042B08D89B00EB589F4665
:1003A000504603F045FA642000F02CFC43461B78CD
:1003B000F1E73B78002B1BD0D02310221B06596895
:1003C0000A422AD120215868014226D05A619961F7
:1003D000322000F017FCD0231B065A6801231207B5
:1003E000D20F5A400423D2B29B1A3A70DBB2D2E742
:1003F0004B4680223360520023681342FCD00F4AE0
:100400006368126853401B040D4A1B0C136043467B
:100410001A7805239B1ADBB2BDE7D02310221B06F6
:1004200059680A42D4D0202158680142D0D19A613B
:100430005961CDE70000054001FE000020000540A5
:1004400020100540140005401410054000C0044071
:1004500000D00440204E0000D0050020D10500202F
:1004600060390010603A001000E00440094A83003F
:100470009A1810B514684022544080322240064C2D
:10048000C000A44663441A60044B9C46604441602B
:1004900010BDC04604C0014004D0014000400140EE
:1004A000074B8000C3181B68C90092000A435A40DA
:1004B0000C231340034A9446604403607047C046CF
:1004C00004C0014004D001408000002905D0064B43
:1004D0009C464023604403607047044B9C46402385
:1004E00060440360F8E7C04604E0014004F00140C6
:1004F0000123D0228340120693629361094A83004C
:100500009A1811684022514080320A400649C000C2
:100510008C4663441A60054B9C4605236044436047
:100520007047C04604C0014004D001400040014073
:100530000FB400B5084883B003F0F6F8049B002B15
:1005400007D005A91800019102F060FF034803F0ED
:10055000EBF8012002F072FF94390010A43900106A
:1005600070B5EFF3108C72B60D4D2B68002BFCD0DC
:10057000BFF35F8F0724CB08C618C05C01230C4073
:10058000A3401C000440034207D118433070BFF35E
:100590005F8F2C608CF3108870BD1000FFF7C8FFD0
:1005A0002C0100D0044A1078431CDBB2172B00D971
:1005B000102313707047C046980100200021044B9F
:1005C000044ABFF35F8F02C39342FAD17047C0461B
:1005D000000100D0800100D0054B064A1360064A96
:1005E000136053609360D3601361536193617047EC
:1005F0008080808000E400E004E400E01F231840D5
:100600001E3B8340002905D0C021044A49005350B5
:1006100013607047802201498B50FAE700E100E047
:1006200070B50D00EFF3108672B60F4A1368002BF9
:10063000FCD0BFF35F8F0D4B10309B6884001B59BB
:100640000B4A934203D09D4201D000F0A1FD074B1D
:100650009B681D51BFF35F8FBFF35F8F0022024B7A
:100660001A6086F3108870BD240100D000ED00E010
:10067000CD010010024B9C46614489000160704727
:100680004000003470B5114C114DAC420FD2FF2622
:100690002368002B0CD0FFF785FF01002000FFF737
:1006A000E9FFA680BFF35F8F0834AC42F0D370BD82
:1006B000FFF778FF01002000FFF7DCFF2671BFF392
:1006C0005F8F0834AC42E3D3F1E7C046E00100207D
:1006D000E80100200A4B1968EFF3108072B60A682F
:1006E000002AFCD0BFF35F8F1B68BFF35F8F00222F
:1006F0001A6080F3108840BF002000217047C04678
:10070000CC050020F0B5DE4657464E464546E0B5DE
:1007100087B0EFF30583032201251A40954091002D
:100720008846A946B34B03925C58B34B1D60B34B4C
:1007300004934B46B24843630823E55E002D37DA45
:10074000A3881BB2002B00DBADE0A379002B00D007
:10075000EEE00823E05E002820DB430062691B18FE
:10076000DB00D3189E68DD68731C00D111E1A4483A
:1007700001004144826A0B69B71A9B1A9F4215D344
:100780000123026A039883401A420FD09C4800F06C
:1007900047FB8D4202DCCCD18642CAD940BF07B0AC
:1007A000F0BCBB46B246A946A046F0BD0E61EDE7DF
:1007B00062696B0092465B19DB009A4453469E685F
:1007C000DF6800F02DFB8F42BADC00D103E1002F7F
:1007D00000DAE8E05246534652691B699346049A90
:1007E000934200D1D9E052460821605E528800044D
:1007F000594610439847009001910099019A0B00C7
:100800001000134300D1CEE013000A00B61A9F4136
:10081000002806DB7A4800F003FB009E019F361893
:100820004F4153469E60DF6000229A5E002A00DA44
:1008300086E7530099186069C900411802938B68D4
:10084000C9689B46B94200DD7AE702D1B34200D9BC
:1008500076E708239C46A444059565462281A44674
:10086000029B2C0006E053009918C90041188D68BE
:10087000C968AB469B18DB00C318B94206DC00D13F
:10088000B3E01C000023E25E002AECDA2300644699
:100890009C4653461A806346059D1D80A3881BB263
:1008A000002B00DA51E72269EFF3108172B613686A
:1008B000002BFCD0BFF35F8F0123A7885B42A3808E
:1008C0003FB22369BFF35F8F00221A6081F3108863
:1008D000002F00DA39E72300083322009A466669C0
:1008E0007B00DB19DB00F318996850468C4608241E
:1008F000115FDD68002910DB029306E0AB4244D0B3
:100900000023E15E2000002906DB4C006418E400AF
:100910003419E368AB42F1DD029B078000201F5EC3
:100920001980002FDCDA1400A379002B00D110E726
:100930000023A37126000823E15E08364B1C00D17A
:100940002CE70800A246656902E03E004B1C1AD065
:100950004B005B18DB00EF180A008C46E95E7B88D1
:100960001BB2002BF1DA01235B42DC17BB60FC6099
:10097000824205D0534631801B893B8053461A8101
:1009800060464B1CE4D15446E5E6A3686345B7D9FD
:10099000C2E76B1C00D0EAE6F8E65B4658461B69E6
:1009A000984700281BD153461B8822692381EFF307
:1009B000108372B611680029FCD0BFF35F8F5146D7
:1009C00062880A8022696580BFF35F8F0021116011
:1009D00083F31088B4E6864200D8F8E6B0E65B46BA
:1009E0001A685B680092019307E7B34500D848E7AF
:1009F0004CE7C046B80400203C70054005070010D5
:100A00000040054070B52E4C2569002D04D00A2108
:100A10002C48FFF72FFE70BD2B4E0321300000F055
:100A2000F5F9E660FFF7BEFD284B03229C46D02374
:100A300022701B061B6801216370254B6044A36074
:100A40000F23800020610220638063694942A180F6
:100A500019800231198647311D83585218315A5274
:100A600075325C399952183201319952183201317C
:100A70009952183201319952083518329D5202317B
:100A80001832995218320131995218320131995263
:100A9000183201319952183201319952183201310C
:100AA00099520C4B0C49DC6001303562FFF7B8FD00
:100AB00001210320FFF7A2FD084B1D60A7E7C046F8
:100AC0009C010020CC05002000400540400000347F
:100AD000FFFF1000B8040020050700103860054033
:100AE00070B501000469EFF3108C72B6206800281D
:100AF000FCD0BFF35F8F02200D5E4C696800401987
:100B0000C00024180869002D36DB26884E80BFF30C
:100B10005F8F002606608CF31088E360638804987A
:100B2000013320615B0405985B0CA26060611A1CB4
:100B3000002B1FD093B22804628018430A69EFF398
:100B4000108C72B61368002BFCD0BFF35F8F8B88BC
:100B500023808D800B69BFF35F8F00221A608CF3B6
:100B600010880B7801329A40CB6808498C46634460
:100B70001A6070BD0122DDE7BFF35F8F00230360C1
:100B80008CF3108801204042F3E7C0463C2000006F
:100B900010B543890A1493421ADD53009B18426929
:100BA000DB00D3180469EFF3108C72B62268002AB8
:100BB000FCD0BFF35F8F5A88090494B2090C8A42B3
:100BC00008D00369BFF35F8F00221A608CF310888E
:100BD000002010BD8022120214435C8001230269B0
:100BE0008371BFF35F8F002111608CF3108804497B
:100BF00002788C469340C268012062441360E8E7A3
:100C00003C200000F0B5C64600B582B0040000F0FC
:100C10000FF9FA2206000F002000002300219200A5
:100C200000F036FF8019794104000D1E02DA01241C
:100C30002E4D644206267642F71736196F41AF42B1
:100C400014D811D000F0F4F832003B00121A8B4196
:100C5000002B15DC002B46D02000290000F0F2F814
:100C600002B080BCB846F0BDA642EBD900260027F2
:100C700000F0DEF832003B00121A8B41002BE9DD58
:100C800000F0D6F832003B00121A8B41002B0ADB31
:100C900000230193164B3200009316483B00FFF7E8
:100CA0001FFF0130D8D000233900B0469C46124ABD
:100CB0001248536A994204D8966A4645CCD2994262
:100CC000CAD10668EFF3108772B63368002BFCD0E8
:100CD000BFF35F8F0368BFF35F8F66461E6087F3C5
:100CE000108820BFE5E7002AB6D0C9E7FFFFFF7FE5
:100CF000D50600109C01002000400540CC050020D6
:100D0000F0B557464E46DE464546E0B506000F00B4
:100D100085B0EFF3058399468B46002B12D03849F6
:100D200000204B6ABB4206D38A6ADB1B591E8B41EB
:100D3000B2424041184305B0F0BCBB46B246A9469A
:100D4000A046F0BD2F4B9A46DB68984653461B7869
:100D50004046039300F064F84246039B04000433CA
:100D60009B009B580D001B1A39003000001BA94145
:100D7000894510DC0DD020BF214A0020536A5B4515
:100D8000D9D3926ADB1B591E8B41B24240411843B2
:100D9000D1E78342EFD900F04BF832003B00121A42
:100DA0008B41002B1ADB00230193174B3200009379
:100DB00050463B00FFF794FE011E0FDD104B5A6AB0
:100DC0005A451BD39B6AB34216D35046FFF7E0FE49
:100DD0000B4A0020536A5B45ADD3D2E7084A002096
:100DE000536A5B45A7D30020926ADB1BB2424041A5
:100DF0005A1E934118439EE75A45E6D120BFE4E7C7
:100E0000004005409C010020D506001010B5024AA4
:100E10000248FFF7A5FB10BDA839001068040020A8
:100E20000300416A0A00986A596A8A42FAD17047F7
:100E3000034B596A0A00986A596A9142FAD170477D
:100E400000400540064A536A9942FCD807D1044B3A
:100E500002E05A6A914202D19A6A9042F9D87047E8
:100E600000400540F8B5DE464E4657464546E0B5DB
:100E70008B4605000A991800160000F08FFA0A9BAD
:100E80006C001F02324B64199C46A40064446368E2
:100E900081469F4200D967602B1FDBB29846012B29
:100EA00030D9C02380229B01E31812011A60294B1C
:100EB000AD0059599A4600291BD17301E0262268DA
:100EC00053401E40802342465B01E3181E60012A06
:100ED00030D9802380229B01E31812011A60534607
:100EE0004A4667605A51F0BCBB46B246A946A04686
:100EF000F8BD586900F052FA013043001B18033B5B
:100F0000FDD2DAE75B46012BCBD1C02303229B0144
:100F1000E3181A60023AA3681A42FCD07301E02673
:100F20002268AD0053401E4080230A4A5B0192466E
:100F3000E3181E605A462168514003220A401A6095
:100F400001225B469A40A3681A42FCD0C1E7C04622
:100F5000008000406C040020F0B546464F46D6465F
:100F6000C0B51F00344B44009C462418A4006444C0
:100F7000636888461600FF2B02D880235B006360FD
:100F8000031FDBB29A46012B30D9C02380229B017C
:100F9000E31812011A60294B850059599946002916
:100FA0001BD17301E026226853401E408023524625
:100FB0005B01E3181E60012A30D9802380229B0147
:100FC000E31812011A6080235B0063604B465F5197
:100FD000E0BCBA46B146A846F0BD586900F0DEF95B
:100FE000013043001B18033BFDD2DAE74346012BD7
:100FF000CBD1C02303229B01E3181A60023AA368F5
:101000001A42FCD07301E0262268850053401E403E
:1010100080230A4A5B019146E3181E60424621681C
:10102000514003220A401A60012342469340A268BD
:101030001342FCD0C1E7C046008000406C04002091
:10104000014B8000C05870476C040020F8B50400C4
:1010500021481E0017000D0000F0A0F90100380023
:1010600000F09CF9069B36041B031E432368002BEB
:1010700020DB1A4B1A49E3185A1E93418022920131
:1010800094465B421B0B174A1B0363441360164ACA
:1010900013601F000A689743FBD1144B2560E218C8
:1010A0002123A06013602368002BFCDA0823E6608C
:1010B0001360F8BD3F2322681340AB42D9D1A36827
:1010C0001B051B0D8342D4D1EE22E368D2021340EC
:1010D000B342CED1EDE7C046001BB7000040FDBFD4
:1010E00008C0004000E0004000F000400430000074
:1010F0008023024A9B000B43D36270470080054067
:10110000002310B50100988A1B8B984710BDC0467C
:10111000162310B50100188802331B88984710BDAC
:10112000F8B54746CE4680B50F1E18D01423994611
:10113000043304000025012698464B461888434690
:1011400021681B88984701C4431E98410135064019
:10115000AF42F2D13000C0BCB946B046F8BD01265E
:10116000F8E7C046AA23064A1B0113602133FF3368
:10117000D3600449044B19605368002BFCDA7047B4
:101180000040024000B0FA00006002407047C046D4
:1011900010B50148FFF7CCF9CC39001070B5074DF8
:1011A000074EB54209D20024013E761BB60808CD91
:1011B000984723000134B342F9D170BD20390010A3
:1011C0005C390010054B064A06491A60064A074B6F
:1011D0001A6010000B689843FBD1704700E0004094
:1011E000BFCDFBFE08C00040FE7F3C0000F0004089
:1011F000044BDB6C002B03D18022034BD2021A601C
:101200007047C046000011504C201150044A054B55
:101210001A60054A1368DB018033FBD17047C04672
:10122000FFFFFF0100F0004008C000404022034BD8
:101230009A675A671A67DA667047C04600F001403D
:1012400010B5FFF7BBF910BD70B5044D044CA9688B
:10125000C022200000F072FCAC6070BD00ED00E028
:1012600000000020002310B5294C82B0A367FFF7CF
:1012700079FF0122274B1A60636C012BFCD10322FA
:10128000254B1A60224A936B012BFCD1013300934A
:101290000121224A22480433FFF7D8FE0523012109
:1012A0000093204A2048FFF7D1FE002202210420AB
:1012B0001E4BFFF751FE0022012105201C4BFFF7BA
:1012C0004BFE0022002107201A4BFFF745FE0022AB
:1012D00000210820174BFFF73FFE8023DB0000931F
:1012E000002200210920134BFFF7BCFD0022104B08
:1012F00000210620FFF730FE0420FFF7A1FE0E4973
:1013000000F04CF801000020FFF7F2FE02B010BD23
:10131000008000403CB0004030B00040002F6859D1
:1013200000800240008C864700C00240001BB700CE
:1013300040597307006CDC0240420F000148042151
:10134000014B1847C001002021110010124A936F71
:101350009B0815D29066D166002905D0FFE7FFE70C
:10136000FFE7516F106F704704B580210906C2175F
:101370005140002800D0C84302F0C2FA002104BD49
:10138000F0B5146E556E576F166FFFF7E3FF1466D6
:10139000556657671667F0BD000000D0114A936F7D
:1013A0009B0813D210665166002905D0FFE7FFE7BE
:1013B000FFE7516F106F704704B5002801D000207F
:1013C000C04302F09DFA002104BDC046F0B5146E82
:1013D000556E576F166FFFF7E5FF14665566576732
:1013E0001667F0BD000000D094464A4A926F9208FA
:1013F000624601D228E0C046F0B5464E346E756EA6
:10140000776F366F00F020F89446424A14665566AE
:10141000576716676246F0BD94463E4A926F92083F
:10142000624601D254E0C046F0B53A4E346E756E55
:10143000776F366F00F04CF89446364A146655665E
:10144000576716676246F0BD002B24DB11D00029D8
:101450003EDA00B5C943404200D1013100F038F80E
:10146000C943404200D10131DB43524200D1013334
:1014700000BD002AEBD1002801D1002905D00020B1
:10148000C90FC90701D1C043410800B502F030FAC5
:101490000022002300BD00B500290ADBDB435242D5
:1014A00000D1013300F014F8C943404200D10131AA
:1014B00000BDC943404200D10131DB43524200D15B
:1014C000013300F005F8DB43524200D1013300BD87
:1014D000002923D1002B18D1002A0CD0BC460D4F77
:1014E00038667A6600210023FFE7FFE7FFE77A6F9F
:1014F000386F67467047002801D00748010000B5E3
:1015000002F0F6F90022002300BD02000B000020CB
:1015100000217047000000D0FFFFFFFF002B00D02C
:10152000BFE0130C28D1002AE7D080B4114F3966F0
:101530007A66FFE7FFE730B4040C7B6F396F1B045A
:1015400023433B667A66FFE7FFE7FFE7C04684B2C6
:101550007B6F3D6F1B0423433B667A66FFE7FFE723
:10156000C04600232C042D0C7A6F386F0019694196
:10157000B0BC7047000000D0F0B594460025140EB2
:1015800001D112020835140F01D112010435940F54
:1015900001D192000235D40F01D152000135D40B94
:1015A0000134254F7C66254C3C660E0C93B2FFE758
:1015B000FFE7FFE73C6F6643360C7703BE46734395
:1015C000DF0B5B04C01AB941130C7343DB18C91A53
:1015D000CE086643360CB64493B273431F0F1B010B
:1015E000C01AB941130C73431F0B1B05C01AB94134
:1015F000860D8F023E436643360C092D24DB520ACA
:101600007243801A7703460A6643360C16235B1B27
:10161000DE40DF40BF1964466643821B70460435D6
:1016200006330100D940A840C01900D30131A242BD
:1016300006D20023F0BD0000000000D0FFFFFFFF36
:10164000121B0130F3D3F1E709277F1BFE406446EC
:10165000A2B27243801A00D20139220C7243130CD9
:101660001204821A99410B007046043513370100A9
:10167000F940A840801900D30131002B02D1A242C9
:101680000AD2F0BD013000D30131121BFAD2013B66
:10169000F8D1A24200D2F0BD013000D30131121BBB
:1016A000F7E7F0B51C0C00D080E00CB400251C0A54
:1016B00004D11B02160E3343120208351C0B04D151
:1016C0001B01160F3343120104359C0B04D19B0000
:1016D000960F334392000235DC0B02D192185B4126
:1016E00001351C00971864410134464F7C66464C16
:1016F0003C660E0CFFE7FFE7FFE7C0463C6F664322
:10170000360C7703BE4697B27743C01B00D201392F
:10171000C01B00D201399FB27743C91BC91B170CEC
:1017200077437E04FF0B801BB941CE086643360C1D
:101730000C2D33DBB644120B1F053A431B0B97B23B
:101740007743C01B00D201399FB27743C91B170CE6
:1017500077433E043F0C801BB941860D8F023E4308
:10176000664329277F1BFE400C3D7746AF40BF19DB
:1017700030BCA2B2ABB272437343801A9941220CBF
:101780007243130C1204801A994102000B000137B6
:10179000001BA941F9D2781E0021F0BD0C277F1B48
:1017A000FE4077467F0BAF40FF19E0E700245D1C49
:1017B00007D0144F7D663966FFE7FFE7FFE7FFE7D5
:1017C0003C6F95B29EB265436643401BB141150C18
:1017D0001E0C6543664336042F0C3E432D04401B0C
:1017E000B141994204D202000B0020000021F0BD5B
:1017F00001D19042F7D3801A994101349942F2D332
:10180000F6E70000000000D0FFFFFFFF4840414026
:10181000484018B4134B5B68019308BD18B4114BD2
:101820001B68019308BD94460F4A926F920805D237
:10183000624618B40B4BDB68019308BD0A4AF0B549
:10184000146E556E576F166F6246FFF7F2FF064A29
:101850001466556657671667F0BD18B4014B9B6850
:10186000019308BD68030020000000D0FFB5504080
:101870004240504059404B40594000E0FFB5154FA1
:101880004C00640D03D0BC4204D10C0314D80020DA
:10189000090D09055C00640D03D0BC4204D11C0392
:1018A0000AD800221B0D1B0501264B4009D44B40D2
:1018B00003D58B4200D18242FFBD9942FCD19042B8
:1018C000FFBD0B43DB1803431343F5D0C94349184D
:1018D000FFBD0000FF07000000B5FFF7CFFF80410C
:1018E00000BDC04600B5FFF7C9FF01D9002000BD0B
:1018F000012000BD00B5FFF7B9FF01D9002000BDF0
:10190000012000BD00B5FFF7B1FF804100BD0120FF
:1019100040054A00121804D85A00121801D80020B5
:1019200070470120704700000021002805D1704752
:10193000C1174840401AFAD0C90713B5064B1B68B7
:1019400098470CBC441CA2401005120B0349091B0C
:1019500009051943114310BDC80400201F040000ED
:1019600010B54C00620D8023D218DB00D21A5B0543
:101970007E2A10DD9E3A13DACC1709034908194371
:101980005242D140640001341532202A05DAD04099
:101990000843604310BD002010BD0846604310BDE1
:1019A000C80FC018013810BD18B4024B5B6A019310
:1019B00008BD00006803002010B50148FEF7B8FD1F
:1019C000D8390010132370B51D78012D19D014DDFE
:1019D0001D48FFF79DFB06001C48FFF799FB1C4CB8
:1019E00080223100200000F0A9F8022D06D019480D
:1019F000FFF786FB184B186070BD154C174BA3649E
:101A0000F5E7174B124C23606360A360E36023612A
:101A10006361A361E36123626362A362E3622363A0
:101A20006363A363E36323646364A364E364236580
:101A30006365A365E36523666366A366E366236760
:101A40006367A367E367D9E7534400005346000088
:101A5000680300204C330000C8040020651A001001
:101A6000B919001007B5604601880A0A0230DF2A5A
:101A7000FAD1C9B2820804D3028840880004104316
:101A800000E00068014A5050039007BD6803002041
:101A900051434343C9188C46110C83B24B4310B4D5
:101AA000040C614392B280B2504362431C041B0C8D
:101AB000001910BC59411304120CC0185141614463
:101AC0007047000010B50148FEF732FD4C3A001097
:101AD000132310B510481C78FFF71AFB0100012CE6
:101AE0000AD003DD80220D4800F028F80C48FFF7EB
:101AF00007FB0C4B186010BD084C5422200000F06E
:101B00001DF82200084980322368002B00D1216093
:101B100004349442F8D1E9E753460000CC04002095
:101B20004C330000C8040020C51A001001480421ED
:101B3000014B1847D001002021110010014B5B68B8
:101B400018470000D00100207047C046F8B557463E
:101B5000DE464E464546E0B599460A9B07009A4642
:101B60000D9B884693460B9C9B073BD10C9B9C424C
:101B70003DD21E1B0B9415000C005E442A004B4600
:101B8000013521002020B847B542F7D1A0460B9C73
:101B9000002C20D0454636195346321B013C185DB7
:101BA00029004B46B847002CF6D12B00350098464B
:101BB0000D9B9B070FD55B46EC1A0C9BA3420AD9E1
:101BC000464698462A004B46310020200134B8474B
:101BD00001354445F6D32800F0BCBB46B246A946C1
:101BE000A046F8BD16001500002CD3D1E0E7160082
:101BF0001500002CCED1EEE7F0B54546DE4657463F
:101C00004E46E0B585B09C4610AB1B78149F9346BA
:101C100098460F9C129E139DBB074CD4002D42D1B9
:101C2000B44248D201233B4099460E9B013B9A4661
:101C3000302304E0524601341355A64201D9202C2A
:101C4000F8D14B46002B00D183E00E9B013B994617
:101C50003023A54205D82EE04A4601341355AC4244
:101C600029D0202CF8D1FB060CD57B0554D4A642F4
:101C700063D0A54261D0119B102B50D0022B57D0BE
:101C8000202C32D1202301930E9B5A4600930397B8
:101C900063460295FFF75AFF05B0F0BCBB46B2465B
:101CA000A946A046F0BD01233B40994601233B4293
:101CB0002AD1B442B9D3FB061CD57B05DBD4002C5A
:101CC000D5D1119B102B5BD0119B022B6BD03023F5
:101CD00001240E9A13704346002B10D17B073ED58A
:101CE0002B260E9A631C1655CDE7230001343026AF
:101CF0000E9AD654202CC5D04346002BEED02D266C
:101D00000E9A631C1655BEE74346002B2FD0013DAB
:101D1000B44200D289E798E7119B102BB2D1BB06E1
:101D200037D5202CAED058230E9A13550134A7E78F
:101D3000202CA7D02300013407E0631E012CC0D063
:101D4000119A102A31D0022AD1D162260E9AD65485
:101D500096E7FB06CED57B0500D488E78BE723000A
:101D60003E0790D520260E9A013316558BE70C239B
:101D70003B405A1E9341ED1AB44200D255E764E746
:101D8000BB060ED478230E9A0224137030235370AE
:101D9000A1E7202C00D175E778230E9A1355013462
:101DA0006EE75823EFE76033EDE70E9AA61E9146E3
:101DB0004E44BA0602D55822327098E77822327023
:101DC00095E7C04610B5002800D110BD01F062FCB7
:101DD000FBE7C0460B0010B5002802D049681B681D
:101DE000984710BDF0B55746DE464E464546E0B52D
:101DF00095B083460F00924698461E9A1F9B10008E
:101E00001900209EFFF783FD002800D0EAE11E980C
:101E10001F990122C54B5242FFF75EFD002800D0FA
:101E200014E11E981F990122C14B5242FFF76AFD2F
:101E3000002800D0E9E01E981F990022BD4BFFF753
:101E400061FD002800D0C8E01E981F990022BA4BFF
:101E5000FFF742FD002800D0BFE01E981F99002226
:101E60000023FFF739FD002800D0E4E000230B93A6
:101E7000229B5B0500D406260024302307E01721AF
:101E800006AA013452181355013E202C01D0092E08
:101E9000F5D81E981F99FFF763FDA84BF2009B1819
:101EA0001A685B68050008920993FFF741FD02007C
:101EB0000B001E981F99FFF7ACFC089A099BFFF7CF
:101EC000CCFC06900791FFF76FFD8146FFF72CFDD4
:101ED00002000B0006980799FFF79BFC0022984B25
:101EE00006900791FFF70EFD002800D10DE10123B8
:101EF0009C46E1444846FFF717FD02000B00089896
:101F00000999FFF7EFFC002802D00023994601351C
:101F1000002E00D1D9E006954D46B94614E006AA38
:101F2000944617230A216344280001341F19FFF740
:101F300035FA3031397028000A21013EFFF72EFAB8
:101F4000092D00D817E10500202CE8D14F46069D49
:101F500020240CAE06AA17239446634499465B4698
:101F6000B34606930FE04B4628000A210134E618D9
:101F7000FFF7ECF93031280031700A21FFF7E6F95C
:101F8000051E00D1E4E0202CEDD1069B5E469B4669
:101F90000323229A1340012B18D1219B002B15D02B
:101FA0000B9B002B00D1FDE0219B013B2193202BBB
:101FB0000CD93023219A07E0172006A9013409180B
:101FC0000B55944200D3CCE0202CF5D1229B0194F8
:101FD0000393219B0096029322E0229B5246049396
:101FE000219B3900039358461E9B1F9C0296009329
:101FF0000194434600F04AF90400200015B0F0BCFB
:10200000BB46B246A946A046F0BD229B5B070FD453
:1020100003224C4B22990192039121990093029142
:102020004346524639005846FFF790FD0400E4E766
:102030000422454BEEE71E9A1F9B00200021FFF76C
:10204000E8FB01231E901F910B9311E7229B54463E
:102050009B0711D1219B042B0ED9219B55469C46F1
:102060005E46043C64442A00434601353900202082
:10207000B047A542F7D1B346344D26002B1F9946F1
:102080005B46A3461C003200E87843463900013D18
:10209000A04701364D45F6D123005C469B46229B66
:1020A00004349B07A9D55346219AE31A9A42A4D92E
:1020B0005E4615002200434639002020B0475346B3
:1020C0000134E31A9D42F5D897E72800FFF730FC6A
:1020D00002000B001E981F99FFF79BFB0022184B74
:1020E00006900791FFF7F8FB0CAE002800D031E70F
:1020F000069807990022124BFFF704FC002800D035
:1021000028E7012301359D4324E70022069807991B
:102110000B4BFFF7E1FB002800D0F9E64B46002B04
:102120005CD101239C46E144F2E6C046FFFFEFFF8D
:10213000FFFFEF7F65CDCD4165CDCDC1703C001077
:102140000000E03F503A0010483A0010583A0010A2
:10215000069B5E469B460323229A1340012B00D127
:1021600081E0202C00D131E70B9B002B27D02D23C1
:10217000335501342AE74F46069D202C00D1E7E66F
:102180003022331907E0172006A9013409180A552F
:10219000202C00D1DCE6A342F5D12E220CAE013476
:1021A000F254D7E60C23229A134257D0219B013BCD
:1021B0002193A34200D9FCE6202C00D106E7229B04
:1021C0005B0703D52B2333550134FFE6229B1B0706
:1021D00000D4FBE6202333550134F7E6DB0700D4B7
:1021E00096E69EE7229B55469B0711D1219B032B28
:1021F0000ED9219B54469C465E46033D6544220011
:102200004346013439002020B047AC42F7D1B346F1
:10221000B9465F461C4EEC1C2A00B078434649463E
:102220000135B847013EAC42F6D1229BBB464F4632
:102230009B0700D4E1E65346219AE31A9A4200D85C
:10224000DBE65E4615002200434639002020B047F9
:1022500053460134E31AAB42F5D3CEE6219BA342A9
:1022600000D9A6E6B2E6219B002B00D179E70B9BB3
:10227000002B97D0219B013B21939C4200D298E6F2
:10228000202C00D073E7A1E6543A0010F0B5DE46EA
:1022900057464E464546E0B599B081468B46924634
:1022A0009846229A239B10001900FFF730FB002864
:1022B00000D0CAE0229823990122824B5242FFF7B4
:1022C00021FB002800D0C0E02298239901227E4BF8
:1022D0005242FFF701FB002800D0B6E02298239974
:1022E00000220023FFF7F8FA002800D0C9E1229B62
:1022F000239C08930994089809998023269ADB0067
:102300001A400D928022269C1201144022000B9448
:10231000269C07000E001C4200D0ADE00B000343DA
:1023200000D0D5E0002A00D00AE222000633249330
:10233000022313400C930223134200D002E2259B98
:10234000042B00D20FE2043B0B93002304250A93D5
:102350000022229823990023FFF7BEFA002800D01C
:1023600003E25A4B269A134004930B9B0393249B3E
:102370000293089B099C0093019459464346524698
:102380004846FFF72FFD02002020269B1F27034011
:1023900059424B415B421840531C089359464346EF
:1023A0004530C8470A9AD317D4185C40D30F0A9314
:1023B0006B1E0B9308AB9C460025674401E0202D63
:1023C0000FD020000A21FEF7E9FF01357E193031D8
:1023D000317020000A21FEF7E1FF26000400092EDB
:1023E000EDD8052306930B9B5946059300230493D0
:1023F0000A3303930A9B4846029310AB0093089A52
:1024000043460195FFF7F8FB0C9B002B2DD053465C
:10241000C41A259BA34228D94D465F4681461E001B
:10242000534639001A19202043460134A847A642D2
:10243000F6D8534648462599C21A013200239142E4
:1024400000D386E1013018180FE0269B0493259BEA
:102450000393249B0293229B239C00930194434665
:10246000524659464846FFF7BDFC19B0F0BCBB4682
:10247000B246A946A046F0BD01432BD10B9B2200DA
:10248000002B00D154E700230A93249B0A9A0024CE
:10249000934200DD85E12298239900220023FFF773
:1024A0001BFA002800D035E1269B084A02941A4006
:1024B0008023DB0013430493259B0393089B099C13
:1024C000CBE7C046FFFFEF7FFFFFEFFFFFF7FFFF08
:1024D00006232493B44B70009C46400D6044FFF7E4
:1024E00027FAB24AB24BFFF7B8F9B24AB24BFFF73C
:1024F00095F93603B14B360B334304000D00380019
:1025000019000022AE4BFFF784F9AE4AAE4BFFF73D
:10251000A4F902000B0020002900FFF77FF9FFF764
:102520001FFA0A90FFF704FAA84AA94B04000D000D
:10253000FFF793F90022A74BFFF770F9FFF710FAA6
:10254000A54A0600A54B20002900FFF786F90400E4
:1025500030000D000C96FFF7EBF9A14AA14BFFF7F5
:102560007CF902000B0020002900FFF752F902005D
:102570000B0006000F00FFF770F9320004000D0099
:102580003B0030003900FFF749F900220E900F910F
:10259000954B20002900FFF746F90022934BFFF7E7
:1025A0003DF902000B0020002900FFF73CF9002252
:1025B0008F4BFFF733F902000B0020002900FFF7D3
:1025C00032F90D008021040032003B000020C905D3
:1025D000FFF71FF902000B0020002900FFF71EF98A
:1025E00002000B000E980F99FFF71DF90022734BA4
:1025F000FFF714F97F4B0C9C9C4664440022230592
:10260000FFF72BF906000F0002000B00089809994C
:10261000FFF762F900280AD00A9B3000013B39001D
:102620000A930022714BFFF7FEF806000F000A9A8A
:10263000330063323900C62A12D8022226980425B4
:1026400010400B9A0C90002A25D1259B042B05D90C
:10265000002800D0A1E0259B043B0B93042541E01A
:102660000222269810400B9A0C90002A12D1259B2A
:10267000052B76D9002872D1259B0525053B0B93A8
:1026800034E0802212069446229B0893239B6344E5
:10269000099330E605250B4300D1F6E60898099921
:1026A000554A564BFFF726F9002808D00898099993
:1026B0000022534BFFF710F9002800D0E5E6249BD9
:1026C000002B1CD00D9B002B19D0249B013B249385
:1026D000259BAB4204D90C9B002B5AD002230C93B0
:1026E00000230B930A9B002B00D131E6089809992F
:1026F00032003B00FFF797F80890099128E6259BE8
:10270000AB42EDD90C9B002B43D000230B9302333B
:102710000C93E7E78020269B3A4A00061A40802364
:1027200084460294089C099D2900DB00134304930E
:10273000259B6144220003930B00009201938EE6D7
:102740000524A8E600230B930A93023304250C9377
:10275000FEE553468C46013B63441B1A72E6022396
:102760000C930525C2E70423EDE58020089E099F10
:10277000000639008446269A224B61441340049394
:102780000B9B32000393249B02930B000092019356
:10279000F3E5259B5B1B0B93A4E7022304250C9315
:1027A000A0E79C1A013C76E601FCFFFFFB799F50F5
:1027B0001344D33FB3C8608B288AC63F0000F03F64
:1027C0000000F83F61436F63A787D23F71A3790987
:1027D0004F930A400000E03F1655B5BBB16B024075
:1027E000EF39FAFE422EE63F00002C400000244064
:1027F00000001840FF0300002D431CEBE2361A3F97
:1028000080842E41FFF7FFFFF0B5DE4657464E4667
:102810004546E0B5A5B01E002E9B92460C93CD4ACE
:10282000CD4B80468B461A60002900D1EAE1002397
:1028300030789946002800D1ECE1C84B4C460B9308
:10284000C74B454657460E930AE0631C9846220044
:102850003B005946A84744463078002800D187E01D
:1028600001362528F1D108239A46043B9946023BBC
:102870009846013B00229C460D943078711C030061
:10288000203BDBB2102B03D80B9C9B00E3589F46E8
:102890000300303B89460D9C092B3AD9002398460A
:1028A0002A2800D1C1E000239A462E284BD00300ED
:1028B000683BDBB2122B1ED80E999B00CB589F466B
:1028C00063460E001A43D8E743460E001A43D4E786
:1028D0004B460E001A43D0E710230E001A43CCE7F4
:1028E00053460E001A43C8E780235B001A43FF3BA0
:1028F0009C467078E1444E4667284FD82428A4D9D6
:102900000300253BDBB2422B9FD896499B00CB5856
:102910009F46002394461E0000E00131B3009B193E
:102920005B001E180878303E0300303B092BF4D9B9
:102930000123624689469C460023B0469A460E0013
:10294000E1442E28B3D13021802049428C46C0007A
:10295000024370784B4684446146092900D86CE1F3
:102960002A2800D17AE101239C464E46E1449EE7A5
:10297000A146A846BA46CA4503D801235B42534440
:10298000994653464A4659460020C047200025B084
:10299000F0BCBB46B246A946A046F0BD0300693B69
:1029A000DBB20D930F2B00D94FE7012199408C46E4
:1029B0006D49894661464B4619400F916346494629
:1029C0000B4200D028E10D9B0A2B3AD0072B00D0F8
:1029D0003BE70C9B190008C98846002B00D14BE14E
:1029E00021200243914614A98C461F220F216244E4
:1029F0008C4651460D950C91A24615000F9902E0A8
:102A000020290CD0130064461C4020003730092CCC
:102A100000D80738013168541A090F2BF0D80C9BE5
:102A200054460D9D9A460F9133E10C9B02CB88468C
:102A3000002947DB0C9301239C4670784E46E14405
:102A400031E70C9B02CB14935346002B00D138E1A5
:102A50009C4608780B000C908C44002801D100F0B3
:102A600098FC89466146944603E05A780133002A6F
:102A700001D08B42F9D1494662465B1A0C900F9304
:102A8000530500D520E10223180010400D90134299
:102A900000D1CBE30D930B1BB1469A465E460C98D2
:102AA00022003B003100A84753460134185D00283E
:102AB000F6D1B3464E460D9B002B00D0C7E1149BC8
:102AC0000C93C9E60C9301239C46283849420243E3
:102AD000884670784E46E144E5E670786C2800D16F
:102AE0007FE180235B001A43FF3B9C46E14402E701
:102AF00080239B001A4301239C467078E144FAE648
:102B00007078682800D173E180231A437F3B9C468C
:102B1000E144F0E6672800D103E1472800D15AE1FB
:102B2000452800D15AE10492072142460C9B0392AA
:102B3000073352468B43190002920CC928000092B9
:102B400001930C9122003B005946FFF79FFB0400C4
:102B500082E6C046092800109C040020D43A0010E8
:102B6000183B0010643B001041900000462800D143
:102B7000DBE00492072142460C9B03920733524646
:102B80008B43190002920CC92800009201930C910A
:102B900022003B005946FFF725F904005CE6631C60
:102BA000984622003B0059462520A847444653E654
:102BB0000C9B04330D93631C9946920700D422E1C9
:102BC0000C9B2200187859463B00A84743464444D2
:102BD000012B00D885E23300B8462E005F46250061
:102BE0004C46994622004346013439002020B04724
:102BF000AC42F7D12C00BB46350047464E460D9BF4
:102C00000C9329E6DB4B3078984600239946002840
:102C100000D012E60024AEE66F2800D188E000D88C
:102C20000BE31023782800D1CFE09A430A239C4677
:102C300000230F930A330D9380E05646B1008919A3
:102C4000490001330E181878303E01003039092947
:102C5000F4D9B2461E000133994628E60C9B023691
:102C600002CB8A46C9435046C917084082460C9396
:102C70003078731C99461AE61023100098431133DC
:102C80001843814680201300C0000340024200D157
:102C9000A9E64B4606930823059353460493102355
:102CA0000393002302930F9B220001931CAB00931C
:102CB00059463B002800FEF79FFF434604000C9353
:102CC000CAE501235B42C3E60F9B534501D9534636
:102CD0000F930223180010400D90134200D1B7E16A
:102CE0000D93D1460B1B9A463300A1442E002200BF
:102CF0004D460C98B9465F469B4608E04B46390066
:102D0000541CB0475346185D002877D022009542E6
:102D1000F4D15B46BB464F46A94635004C461E00E3
:102D2000C9E680231B011A43FDE620231A4320E74E
:102D300008239C4600230F9308330D938023110032
:102D4000DB0019401A4200D116E10D239A4310000E
:102D5000802302009B001A401492184200D0C2E166
:102D6000802302005B001A4091460C9A04320F92B5
:102D7000184200D0B7E2430600D59FE1030600D415
:102D800019E30C9B1B880993002B00D0FCE1103346
:102D90009843002900D1F7E1002399464346059363
:102DA000534604930D9B069003930023D2E05828CA
:102DB00008D0622867D102239C4600230F93023378
:102DC0000D93BBE720231A43103B9C4600230F932F
:102DD00010330D93B2E780231B011A4320231A43BB
:102DE000A1E6C0239B001A43F31C9946B07882E504
:102DF000C0231A43F31C9946B0787CE535005E4643
:102E0000BB464F4657E64346012B00D863E1631E9D
:102E100043449A463300B9462E005F4655469B46CA
:102E2000A24622004B46013439002020B047AC4274
:102E3000F7D135005E46BB464F46A14654460C9B33
:102E40004A46187859463B004444A847D7E6A1466D
:102E50000F9B984500D832E64444E41A3300B84644
:102E60002E005F4625004C46994622004346013419
:102E700039002020B047AC42F7D12C00BB463500CA
:102E800047464E461BE680231000DB0018401A42DE
:102E900000D10FE1112118008A430D920D9A802371
:102EA00011009B0019408C461A4269D18023110001
:102EB0005B00194089460C9904310F911A4200D0E9
:102EC000CAE113005B0600D5F0E013001B0600D436
:102ED00059E20C9B00229B5ED9175A184A4092B2C5
:102EE000D90F0C91002B00D1F9E1100014AA9446DF
:102EF00042461F23149252466344A84616944D46F8
:102F00000400B946B2461F00159201E0202D0FD0F3
:102F100020000A21FEF742FA01357E193031317066
:102F200020000A21FEF73AFA26000400092EEDD807
:102F3000149B4F46A94645469846159B56469A46C9
:102F4000169C0D9B069343460593534604930A2310
:102F500003930C9B02934B4601931CAB22000093FE
:102F600059463B002800FEF747FE0F9B04000C93D8
:102F700072E4C046491B00100C239A431000E7E698
:102F800007220C9B07339343013294469C446246CC
:102F90000C920CCBD90F0F911100194300D191E085
:102FA000D9171391129151401091139959401191D1
:102FB00010981199129A139B801A994110901191AF
:102FC00014AA0023944642469946149252461F334F
:102FD0006344A846B24616944E46109C119DB946CD
:102FE00015921F0001E0202E10D0200029000A2297
:102FF0000023FEF711FA013630322B00BA550D00CE
:1030000022000400002BEED1092AECD8149B109466
:10301000119545469846159B4F46B14656469A46E9
:10302000169C0D9B069343460593534604930A232F
:1030300003930F9B02934B4601931CAB220000931A
:1030400059463B002800FEF7D7FD0400FFF704FCBB
:103050000F9B984500D8C1E18023DB000D934346C8
:103060000F9A1B199B1A994633002E004D46B946FC
:103070005F469B460C9122004B46013439002020CC
:10308000B047AC42F7D143460C9901330F930B780C
:1030900035000C935E46BB464F46002B00D10EE533
:1030A0000D9B002B00D1F6E4002319E60C9B1B7846
:1030B0001A0015E710239A430D92EFE60C9B1B783C
:1030C000099361E6002399460028AAD10022002333
:1030D0001092119374E70C9B2200187859463B001C
:1030E000A8474C468BE50C9AFA3BFF3B07329A43C4
:1030F0000133994691444B460C93136852681592DC
:103100001A4306D11032904300220992002900D0C0
:1031100081E06122810600D54122D2B20A9214AA2E
:1031200091460A9A00210A3A149242461792524650
:1031300018925A460991B3461F311E000F9B49440D
:10314000BA4619941A950024674698468946159DF3
:1031500016901B920AE03032D2B24B4601341A5517
:10316000A8454AD0202C4AD006000D003A00002382
:1031700030002900FEF750F9D2B2092AEBD9149B8E
:103180009C466244D2B2E8E76123820600D541231F
:10319000DBB20A3B0C93434614A91F228C461593BD
:1031A00053466244A046B2464C461797A9461700BC
:1031B000099D0D9E1490169308E03033DBB2013464
:1031C0003B55B5420ED3202C0CD005003100280011
:1031D000FEF7E4F8CBB20929EFD90C9A9446634480
:1031E000DBB2ECE7159B4D46A14644469846169B3C
:1031F000564614989A46179FD0E5B742B2D9179B06
:1032000057469846189B5E469A461B9B09949B46D8
:103210001698199C1A9D43460593534604930D9B9B
:103220000690039300230293099B05E70F9B9845A3
:1032300000D914E701330F932DE4102311009943B3
:103240000D91692800D0BAE080231000DB001840FF
:103250001A4200D122E61DE60C9B1B68DA0F110012
:10326000002B00D18CE0DA179818504014AA914630
:1032700042461F23149252464B44A046A946169735
:1032800004006546B2461F000C91159201E0202D06
:103290000FD020000A21FEF781F801357E19303168
:1032A000317020000A21FEF779F826000400092E6B
:1032B000EDD8149B444698460C9BAC461900159BD0
:1032C00056464D469A46169F0D9B029106934346DD
:1032D0000593534604930A23039363463CE6002870
:1032E00000D02EE602E60C9B1B689946002B03D10A
:1032F00010339843002938D16123820600D5412339
:10330000DBB20A3B0C9343461693534614A91F2283
:103310008C4617932B006244A0464D46B246189740
:1033200099461700149C0D9E159008E03033DBB2CF
:1033300001343B55B5420ED3202C0CD00500310092
:103340002800FEF72BF8CBB20929EFD90C9A944646
:103350006344DBB2ECE7169B149444469846179BF3
:1033600056464D469A461598189F43460593534630
:1033700004930D9B0690039300230293149BEBE5AB
:103380000028A1D172E70C9B1B68D9175A184A4034
:10339000A6E580231000DB0018409C460F901A42DF
:1033A0000FD00220030013400F93104219D00023C6
:1033B000A1460F934CE50C9B1B680993E4E40A00BB
:1033C00034E40223180010400D90134200D03EE573
:1033D0004346002B00D042E6FFF771FB01330F9309
:1033E0007FE463460D93F3E710B50C0084B00394BB
:1033F000012402A902900093034813006242FFF7E0
:1034000003FA04B010BDC046D51D001010B5094A1E
:103410000300146884B0002C08D0012200910648F3
:10342000524203A9A047012004B010BD00F07CF96E
:103430000020F9E79C040020C51D001000BEFDE738
:1034400010B5FFF7FBFFC04670B5FDF7A7FE074DAF
:10345000074EB54209D20024013E761BB60808CDBE
:10346000984723000134B342F9D170BD5C39001094
:1034700060390010030010B5080011001B68984760
:1034800010BDC046F0B5C64600B5437D07000C0030
:103490001600002B46D0002A17DD0B780A2B24D00B
:1034A00000239846012E13D001252900635C0135C5
:1034B0000A2B26D0B542F8D1464509DCA419013CB7
:1034C00023780D3B5A4253413B7580BCB846F0BD52
:1034D0004346E018A419F11A013C3B689847237849
:1034E0000D3B5A4253413B75EFE7037D002BD7D18B
:1034F00002210F483B689847012EDFD001239846F0
:10350000D2E7631E5B5C0D2BD4D0884504DA4346BA
:10351000C91AE0183B689847022105483B68A8464D
:103520009847C7E70368110020009847CDE7C046D9
:10353000C03C0010F0B5C6460B6806000C0000B594
:10354000802B06D05A1C2260E418267180BCB84635
:10355000F0BD0F4B1D68002D16D00B1D98460D4F6A
:1035600002E02D69002D0FD02B68002BF9D03B68AD
:10357000002B01D0AB42F4D1280041462268FFF76E
:1035800081FF2D69002DEFD101220023DBE7C0462A
:103590009404002098040020F0B54546DE464E46CF
:1035A0005746E0B583B091461C0080460D00FDF7FC
:1035B0003FFC0023304A12184B41002B02DA012253
:1035C0002E4B52422E4908008A4600F0A1F907000E
:1035D0006B1C03D1404600F053F90500002C27D0A6
:1035E000284E294B1C68002C18D04B46002B21D1AB
:1035F000264B994602E02469002C0FD02368002B4B
:10360000F9D04B461B68002B01D09C42F3D120001F
:103610002A004146B0472469002CEFD1002F26D163
:10362000280003B0F0BCBB46B246A946A046F0BD98
:10363000174ED6E7154B99460A239B4602E02469AC
:10364000002CEBD02368002BF9D04B461B68002BD5
:1036500001D0A342F3D12A0041462000B0476B4677
:103660005A462000DA71D91D0122B047E7E75046DB
:1036700000F036F9D4E7C04640420F00FFFFFF7F5D
:10368000E0010020853400109404002098040020FC
:1036900075340010F0B5CE46474680B583B06B4612
:1036A0000600DD1D2870FDF7C3FB0023194A121820
:1036B0004B41002B02DA0122174B524217490800F6
:1036C000884600F025F9164B81461C68002C14D062
:1036D000144F02E02469002C0FD02368002BF9D08E
:1036E0003B68002B01D09C42F4D12000012229002C
:1036F000FFF7C8FE2469002CEFD14B46002B05D103
:10370000300003B0C0BCB946B046F0BD404600F042
:10371000E7F8F5E740420F00FFFFFF7FE0010020E0
:10372000940400209804002070B5040000F0A8F86C
:1037300001230100050001222000FFF72DFF084BA7
:103740001C68002C06D06368002B05D098472469BC
:10375000002CF8D1280070BD2469002CF3D1F9E7C2
:1037600094040020F0B5CE46474680B5A3B00400CF
:103770000D00FDF75DFB0023274A12184B41002B7B
:1037800002DA0122254B5242254E300000F0C0F8EB
:1037900000232200019307002B00224801A9FFF714
:1037A00023FE214B804699461C68019B002B1AD0B2
:1037B000002C2FD01D4D02E02469002C0FD023686F
:1037C000002BF9D02B68002B01D0A342F4D12000AC
:1037D000019A02A9FFF756FE2469002CEFD14B464F
:1037E0001C6800230193002C06D06368002B0BD0CB
:1037F00098472469002CF8D1002F07D1404623B008
:10380000C0BCB946B046F0BD2469ECE7300000F01A
:1038100067F8F3E70194EFE740420F00FFFFFF7FF7
:10382000E0010020353500109404002098040020A9
:103830000FB400B583B004A901C90191FFF792FF4D
:1038400003B008BC04B0184701230121084A1360E3
:10385000084A1360084A080013689843FBD1074AD6
:1038600011608021490013680B42FCD07047C046AC
:1038700000E0004000F0004008C0004000C00440EC
:1038800010B583070AD00300032102E001330B4285
:1038900005D01A78002AF9D1181A10BD030019684A
:1038A0000C4A0D4C8A188A4322420FD15968094AA2
:1038B00004338A188A43224208D15968054A0433DE
:1038C0008A188A432242F1D000E001331A78002A94
:1038D000FBD1E1E7FFFEFEFE80808080F8B5C046A8
:1038E00001B40248844601BC604700BF5901002072
:1038F00001B40248844601BC604700BF810100203A
:1039000001B40248844601BC604700BF8101002029
:1039100001B40248844601BC604700BFC1000020DA
:10392000C5110010F11100103D1300102D1B0010E7
:10393000C5190010D11A0010651200100D120010E8
:103940002D120010411200108506001049120010BF
:10395000050A00108D110010D9050010B1020010E9
:103960004572726F72206F63637572726564212095
:103970004E6F20436F4220696E7374616C6C656496
:10398000206F72206E6F742066756E6374696F6E3F
:10399000616C00000A2A2A2A2050414E4943202AFD
:1039A0002A2A0A000A000000486172647761726581
:1039B00020616C61726D20256420616C72656164A8
:1039C0007920636C61696D65640000004861726410
:1039D00020617373657274006D697373696E67201B
:1039E000646F75626C652066756E6374696F6E00D6
:1039F00052656C6561736500626F6F74325F6765F5
:103A00006E657269635F303368000000302E3100EC
:103A1000322E312E31000000616461667275697466
:103A20005F666561746865725F7270323034300051
:103A30006C616D702D73657475700000417072203B
:103A40003238203230323500666E692B00000000BB
:103A5000666E69006E616E00666E692D0000000082
:103A6000AC030010B2030010B8030010A003001054
:103A7000F003001006005250D3F07542F0390010E8
:103A800006005250E182887FF8390010060052503B
:103A90003ABCA9110C3A001006005250ABB3605367
:103AA000103A001006005250BBFF3CB6183A001006
:103AB00006005250861C0302303A00100600525095
:103AC0005422A29D3C3A001005005250DE65F46875
:103AD0000C3E0010E02800109028001090280010E4
:103AE000D82800109028001090280010902800106E
:103AF00090280010902800109028001090280010A6
:103B0000D028001090280010C8280010902800101D
:103B100090280010C0280010002B0010F62800107C
:103B2000F02A0010F6280010DA2A0010F6280010FB
:103B3000F6280010F6280010F6280010F6280010CD
:103B4000F6280010F6280010E8280010F6280010CB
:103B5000F6280010F6280010F6280010F6280010AD
:103B6000E82800109E2B00104A2800104A28001058
:103B70004A2800104A2800104A2800104A2800103D
:103B80004A2800104A2800104A2800104A2800102D
:103B90004A2800104A2800104A2800104A2800101D
:103BA0004A2800104A2800104A2800104A2800100D
:103BB0004A2800104A2800104A2800104A280010FD
:103BC0004A2800104A2800104A2800104A280010ED
:103BD0004A2800104A2800104A2800104A280010DD
:103BE0004A280010142B00106C2B0010142B00100E
:103BF0004A2800104A2800104A2800104A280010BD
:103C00004A2800104A2800104A2800104A280010AC
:103C10004A2800104A2800104A2800104A2800109C
:103C20004A2800104A2800104A2800104A2800108C
:103C3000AE2D00104A2800104A2800104A28001013
:103C40004A2800104A2800104A2800104A2800106C
:103C50004A2800104A280010AE2D0010B02B00108A
:103C6000AE2D0010142B00106C2B0010142B001024
:103C7000000000000000F03F0000000000002440B1
:103C800000000000000059400000000000408F408C
:103C9000000000000088C34000000000006AF840F7
:103CA0000000000080842E4100000000D01263411B
:103CB0000000000084D797410000000065CDCD4191
:043CC0000D0A0000E9
:103CC400743A0010803A00108C3A0010983A0010B0
:103CD400A43A0010B03A0010BC3A0010C83A0010E0
:103CE400F0B5C646150000B504001E000268EFF3E7
:103CF400108172B61368002BFCD0BFF35F8F0423CE
:103D0400E3562268002B2BDBBFF35F8F002010608B
:103D140081F31088D02212061278002752B29046FE
:103D24009A420ED1002080BCB846F0BDBFF35F8F2D
:103D3400176081F310882800310000F035F800285E
:103D4400F0D12268EFF3108172B61368002BFCD017
:103D5400BFF35F8F237922687F2BE7D9434602E0C4
:103D6400D0231B061B682371BFF35F8F00231360EE
:103D740081F310880120D6E70268EFF3108172B650
:103D84001368002BFCD0BFF35F8FFF23037103681C
:103D9400BFF35F8F00221A6081F3108840BF704721
:103DA4007047C0460000000001B40248844601BCCC
:103DB400604700BF010D001010000000000000006B
:103DC40000000000000000000000000000000000EF
:103DD400E8010020000000000000000000000000D6
:103DE400503300004C3300005433000052330000C1
:103DF4004D5300004D430000533400004334000091
:083E04000000000000000000B6
:04000005100001E9FD
:00000001FF
